:02000000E02CF2
:10000800FF00030E8301CD000A08CE008A017008A4
:10001800A7007108A6007408A5007508A400780850
:10002800A3007908A2007C08A1007D08A0000408AC
:10003800A8000C1CAC280C104608031930283030D6
:10004800900083160C10831285113F08BD004008EC
:10005800BE00C7016524AC28303090000B308F00FB
:10006800DC308E0031309000CF0A4709F100F001F2
:100078004F18F00A7108F0050319AC283E08003C37
:10008800031D48283D08013C031C9F28BD01BE01F3
:100098003030900083160C108312C7018511652437
:1000A800E8016808FE3C031C9728E7016708FA3C4A
:1000B800031C6C2805152430FD00FD0B6128000089
:1000C80005112430FD00FD0B67280000E70A5A28B7
:1000D800E7016708FA3C031C7D2805152B30FD0055
:1000E800FD0B742805112B30FD00FD0B7928E70A5C
:1000F8006D2886188328861C7F28C70197286808DA
:10010800323A031994286808643A0319942868084D
:10011800963A031994286808C83A03199428952828
:100128006524E80A55283F08BD004008BE00013094
:10013800C600C701AB283E08003C031DA5283D08A2
:10014800003C0318AB280130BD02031CBE03652424
:100158002708F0002608F1002508F4002408F50017
:100168002308F8002208F9002108FC002008FD00F7
:10017800280884004E088A004D0E8300FF0E7F0E6B
:0201880009006C
:10018A00043083120313FD00FD0BC9280000000090
:02019A0008005B
:10019C0083120313F801F9011030FC00710DF80DF6
:1001AC00F90D7408F8027508031C750FF902031891
:1001BC00E6287408F80775080318750FF90703107B
:0A01CC00F00DF10DFC0BD428080023
:1001D60083120313F8010830FC00700DF80D740843
:1001E600F8020318F828F8070310F00DFC0BF028A6
:0201F6000800FF
:1001F800103083120313F4000E30F5003D08F000B0
:100208003E08F100CE207008C1001030F4000E3016
:10021800F5003D08F0003E08F100CE207808F00017
:100228007908F1007008E5007108E6006508C90062
:100238006608CA003C30F4000030F5006508F0009C
:100248006608F100CE207008C5003C30F40000308C
:10025800F5006508F0006608F100CE207808F00087
:100268007908F1003C30F4000030F500CE20780821
:0C027800F0007908F1007008C4000800D4
:10028400831203133908293E84000008C800C819E2
:100294004D2905104E290514C5208510C520851447
:1002A40048195629051057290514C5208510C5205D
:1002B4008514C8185F29051060290514C520851008
:1002C400C520851448186829051069290514C52016
:0A02D4008510C5208514C520080020
:1002DE00103083120313F4000E30F5003D08F000C9
:1002EE003E08F100CE207008C1001030F4000E3030
:1002FE00F5003D08F0003E08F100CE207808F00031
:10030E007908F1007008EA007108EB006A08C9006C
:10031E006B08CA003C30F4000030F5006A08F000AB
:10032E006B08F100CE207008C5003C30F4000030A0
:10033E00F5006A08F0006B08F100CE207808F00096
:10034E007908F1003C30F4000030F500CE2078083A
:0C035E00F0007908F1007008C4000800ED
:10036A00103083120313FD00FD0BB92900000800A9
:04037A000000080077
:10037E0083120313FB01FA01F9018030F800F10C2E
:10038E00F00C031CD3297408F90775080318750FB0
:10039E00FA070318FB0A0310F01FDB297408FA078B
:1003AE0075080318750FFB07FB0CFA0CF90CF80C0B
:1003BE00031CC6297B08F3007A08F2007908F100C5
:0603CE007808F0000800B1
:1003D400193083120313FD00FD0BEE290000000009
:0203E40008000F
:0E03E600831203135B088A005A088200080085
:1003F4000F3083120313D0000E30D3000E30D6001A
:100404000F30D900FC200A30F4004108F000EB2042
:100414007808F0007008E4006408C200640841022F
:10042400F0007008C3000A30F400EB207008C30029
:100434000A30F400EB207808F0007008C30070085C
:10044400D1006408D2000A30F4004508F000EB2023
:100454007808F0007008E4006408C20064084502EB
:10046400F0007008C3000A30F400EB207008C300E9
:100474000A30F400EB207808F0007008C30070081C
:10048400D4006408D5000A30F4004408F000EB20DE
:100494007808F0007008E4006408C20064084402AC
:1004A400F0007008C3000A30F400EB207008C300A9
:1004B4000A30F400EB207808F0007008C3007008DC
:1004C400D7006408D800BA013A08093C031C722A10
:1004D4003A08503E84000008B9004221BA0A662A4C
:0604E400BB01BC01080091
:1004EA00A53083120313FD00FD0B792A00000000DA
:0204FA000800F8
:1004FC00831603139C1C842A00007E2A83125E0838
:10050C0083169B0083125F0883169A009C131C159C
:10051C000B08F0008B1355309D00AA309D009C14E5
:0E052C00F01B9A2A8B139B2A8B171C110800B8
:10053A00831203135E083F02F1000030031C013EE0
:10054A004002F2007108BF007208C000FD3072025A
:10055A00031DB12A2A307102031CB52ABF01C0014A
:0C056A003F08BD004008BE00FA21080058
:10057600831203135F08F1000130F00071080319BC
:10058600C82AF00D7010FF3EC22A7008E100F0097B
:100596005E0884007008800584177008800575223F
:1005A600610880048413EA2161080005E000600800
:1005B600003A013003190030E00075226008F000AF
:0205C60008002B
:1005C800831203135F08F1000130F000710803196A
:1005D800F12AF00D7010FF3EEB2A7008E300F009D5
:1005E8007008E2005E088400700880058417E10145
:1005F8006108073C031C162B6108F0006008F10035
:10060800700803190B2BF10CF113FF3E052B620840
:100618008005711C112B63088004EA21630880049B
:0C062800E10AFC2A8413B521B52108006A
:10063400831203135F08F1000130F00071080319FD
:10064400272BF00D7010FF3E212B7008E30070097A
:10065400E2005E088400E101E0016008073C031C3D
:10066400532B62088005841762088005BD21630846
:100674008004BD21841363080005F00003194F2B87
:100684006008F1000130F000710803194D2BF00DE2
:100694007010FF3E472B7008E104B521B521E00A34
:0806A4002F2B6108F000080093
:1006AC00831203135E083F07F10040080318013E54
:1006BC00F2007108BF007208C000FD307202031D09
:1006CC00692B20307102031C6F2B2030BF00FD30D2
:0E06DC00C0003F08BD004008BE00FA21080023
:1006EA00F3218A110A128000840ADA0A0319DB0A42
:0806FA00F003031D752B08003D
:1007020083120313E3015F08F1000130F000710866
:1007120003198F2BF00D7010FF3E892B7008E20039
:100722005E08840070080005F10071080130031DA5
:100732000030F0006108F0060319B72B6008003C96
:100742000318A72B75227522E0039F2B5E088400F5
:1007520062080005F10071080130031D0030F0004D
:100762006108F0060319B72BFF30E3006308F000BD
:0207720008007D
:100774000F3083120313D0000F30D1000E30D60097
:100784000F30D8000F30D900DF1FD02B0E30D2002D
:10079400DE09DF09DE0A0319DF0AD22B0F30D2008B
:1007A4005E08F0005F08F100F10CF00CF113F10C9D
:1007B400F00CF113F10CF00CF113F10CF00CF1133B
:1007C4007008E1006430F400EB2070080319F22B88
:1007D4006430F4006108F000EB207008D300F32BC0
:1007E400D3010A30F4006108F000EB200A30F40071
:1007F400EB207808F0007008D4000A30F400610897
:10080400F000EB207808F0007008D5000F305E058A
:10081400F0005F08F1000030F1057130F40002309F
:10082400F500BF21E830F4000330F500CE20700855
:10083400D700E0016008093C031C282C6008503EE6
:1008440084000008B9004221E00A1C2CBB01BC0151
:0208540008009A
:1008560083120313F101F20172085F02031D352CA6
:1008660071085E02031C492C05152730FD00FD0B9F
:100876003A2C0000000005112730FD00FD0B412C2D
:0E08860000000000F10A0319F20A2F2C0800EE
:10089400033083120313FB008A30FC005530FD0043
:1008A400FD0B522CFC0B522CFB0B522C00000000B5
:0208B40008003A
:1008B600831203135E0883169B009C131C141A08EC
:0408C600F000080036
:1008CA000F3083120313D0000E30D3000E30D6003F
:1008DA000F30D9006F210A30F4004108F000EB20F4
:1008EA007808F0007008E9006908C2006908410246
:1008FA00F0007008C3000A30F400EB207008C3004F
:10090A000A30F400EB207808F0007008C300700881
:10091A00D1006908D2000A30F4004508F000EB2043
:10092A007808F0007008E9006908C2006908450201
:10093A00F0007008C3000A30F400EB207008C3000E
:10094A000A30F400EB207808F0007008C300700841
:10095A00D4006908D5000A30F4004408F000EB20FE
:10096A007808F0007008E9006908C20069084402C2
:10097A00F0007008C3000A30F400EB207008C300CE
:10098A000A30F400EB207808F0007008C300700801
:10099A00D7006908D800BA013A08093C031CDD2CC3
:1009AA003A08503E84000008B9004221BA0AD12C04
:0609BA00BB01BC010800B6
:1009C0000A3083120313A9000130AA000230AB00E1
:1009D0000330AC000430AD000530AE000630AF008F
:1009E0000730B0000830B1000930B2000D30B3005C
:1009F0000C30B4000B30B5000E30B6000F30B7002D
:100A0000B80107309F008B130B178B120B128B1141
:100A100083168C130C138C120C120C118C100C10EE
:100A20008113FF3086008501831285011211303059
:100A3000900085140514BB01BC013F30DC00DE01D1
:100A40005B2483125C088400700880005C0ADD006F
:100A50000130DE005B2483125D0884007008800092
:100A60003F08BD004008BE004A24FA210130C600FC
:100A7000C7018B170630DE000130DF003230E000A6
:100A8000E101812370080319B22D3230DE000030FD
:100A9000DF002B240630DE000230DF006430E0008F
:100AA000E1018123700803195F2D3230DE00003030
:100AB000DF002B240130DE005623C6018A2D0630CC
:100AC000DE000330DF006430E000E10181237008C4
:100AD0000319742D3230DE000030DF002B2401308A
:100AE000DE009D22C6018A2D0630DE000430DF00C4
:100AF0006430E000E1018123700803198A2D32304F
:100B0000DE000030DF002B24BF01C001BD01BE01AB
:100B1000C601FA210630DE000130DF003230E0008D
:100B2000E10181237008031D4A2D46080319AE2DEB
:100B3000C601C701DE013F08DF007E2201308312BB
:100B4000DE004008DF007E220C140B3083128F0081
:100B5000DC308E00313090008515B12D0130C6009B
:100B6000C7019C2E0630DE000230DF006430E0005A
:100B7000E101812370080319C92D46080319C92D05
:100B80003C30DE0056233230DE000030DF002B2404
:100B90009C2E0630DE000330DF006430E000E1010F
:100BA000812370080319E02D46080319E02D3C301D
:100BB000DE009D223230DE000030DF002B249C2E30
:100BC0000630DE000430DF003230E000E101812336
:100BD0007008FF3A0130031D0030F1004608003A6A
:100BE0000130031D0030F0007108F00503190A2ED2
:100BF0000630DE000430DF003230E000E101812306
:100C000070080319042EF82DC709C830DE00DF0173
:100C10002B249C2E0630DE000430DF003230E00052
:100C2000E1018123700803199C2E460803199C2EAC
:100C30003230DE000030DF002B240630DE000430CE
:100C4000DF003230E000E10181237008031D1D2E1A
:100C50008B130530DE000430DF00BB220530DE00E0
:100C60000430DF00CC30E000E4220530DE00043048
:100C7000DF004430E000E4228B170430FB00D13069
:100C8000FC009B30FD00FD0B432EFC0B432EFB0BA9
:100C9000432E8B130530DE000430DF00BB2205300D
:100CA000DE000430DF00CC30E000E4220530DE005E
:100CB0000430DF00BE30E000E4220530DE00043006
:100CC000DF001A237008CB00CC010530DE000430B1
:100CD000DF001A237008F300F2014B087207F000DE
:100CE00073080318013E4C07F1007008CB0071082F
:100CF000CC008B177008DE007108DF00BA234A248D
:100D00000630DE000430DF003230E000E1018123F4
:100D1000F009031D282E0630DE000430DF003230DB
:100D2000E000E10181237008031D8B2E3230DE00CC
:100D30000030DF002B24FA21BB0A0319BC0A3C084F
:100D40006D3A031DA52E60303B06031DA82EFA2127
:040D50003A2DA92E61
:02400E0001218E
:020000040000FA
:1042000000000000FF00FF00FF00FF00FF00FF00B4
:10421000FF00FF00FF00FF00FF00FF00FF00FF00A6
:10422000FF00FF00FF00FF00FF00FF00FF00FF0096
:10423000FF00FF00FF00FF00FF00FF00FF00FF0086
:10424000FF00FF00FF00FF00FF00FF00FF00FF0076
:10425000FF00FF00FF00FF00FF00FF00FF00FF0066
:10426000FF00FF00FF00FF00FF00FF00FF00FF0056
:10427000FF00FF00FF00FF00FF00FF00FF00FF0046
:10428000FF00FF00FF00FF00FF00FF00FF00FF0036
:10429000FF00FF00FF00FF00FF00FF00FF00FF0026
:1042A000FF00FF00FF00FF00FF00FF00FF00FF0016
:1042B000FF00FF00FF00FF00FF00FF00FF00FF0006
:1042C000FF00FF00FF00FF00FF00FF00FF00FF00F6
:1042D000FF00FF00FF00FF00FF00FF00FF00FF00E6
:1042E000FF00FF00FF00FF00FF00FF00FF00FF00D6
:1042F000FF00FF00FF00FF00FF00FF00FF00FF00C6
:00000001FF

