:02000000D62CFC
:10000800FF00030E8301DA000A08DB008A0170088A
:10001800A7007108A6007408A5007508A400780850
:10002800A3007908A2007C08A1007D08A0000408AC
:10003800A8000C1CA2280C105008031930283030D6
:10004800900083160C10831285113C08CE003D08E1
:10005800CF00D1015B24A228303090000B308F00F4
:10006800DC308E0031309000D20A5109F100F001E5
:100078005218F00A7108F0050319A22800304F063B
:10008800031D482800304E06031D9D28303090007F
:1000980083160C108312D10185115B24E8016808CE
:1000A800FE3C031C9528E7016708FA3C031C6A28F4
:1000B80005152430FD00FD0B5F28000005112430D4
:1000C800FD00FD0B65280000E70A5828E7016708CE
:1000D800FA3C031C7B2805152B30FD00FD0B72280C
:1000E80005112B30FD00FD0B7728E70A6B288618D1
:1000F8008128861C7D28D10195286808323A031981
:1001080092286808643A031992286808963A0319ED
:1001180092286808C83A0319922893285B24E80AA9
:1001280053283C08CE003D08CF000130D000D10153
:10013800A1280130CE02031CCF035B242708F0005E
:100148002608F1002508F4002408F5002308F80023
:100158002208F9002108FC002008FD002808840076
:0E0168005B088A005A0E8300FF0E7F0E09000E
:10017600043083120313FD00FD0BBF2800000000AE
:0201860008006F
:1001880083120313F801F9011030FC00710DF80D0A
:10019800F90D7408F8027508031C750FF9020318A5
:1001A800DC287408F80775080318750FF907031099
:0A01B800F00DF10DFC0BCA28080041
:1001C20083120313F8010830FC00700DF80D740857
:1001D200F8020318EE28F8070310F00DFC0BE628CE
:0201E200080013
:1001E400103083120313F4000E30F5004E08F000B3
:1001F4004F08F100C4207008CB001030F4000E301A
:10020400F5004E08F0004F08F100C4207808F00013
:100214007908F1007008E5007108E6006508D5006A
:100224006608D6003C30F4000030F5006508F000A4
:100234006608F100C4207008CC003C30F4000030A3
:10024400F5006508F0006608F100C4207808F000A5
:100254007908F1003C30F4000030F500C42078083F
:0C026400F0007908F1007008BA000800F2
:10027000831203133B08293E84000008D700D719D6
:100280004329051044290514BB208510BB20851483
:1002900057194C2905104D290514BB208510BB208A
:1002A0008514D7185529051056290514BB2085102B
:1002B000BB20851457185E2905105F290514BB2043
:0A02C0008510BB208514BB20080048
:1002CA00103083120313F4000E30F5004E08F000CC
:1002DA004F08F100C4207008CB001030F4000E3033
:1002EA00F5004E08F0004F08F100C4207808F0002D
:1002FA007908F1007008EA007108EB006A08D50075
:10030A006B08D6003C30F4000030F5006A08F000B3
:10031A006B08F100C4207008CC003C30F4000030B7
:10032A00F5006A08F0006B08F100C4207808F000B4
:10033A007908F1003C30F4000030F500C420780858
:0C034A00F0007908F1007008BA0008000B
:10035600103083120313FD00FD0BAF2900000800C7
:04036600000008008B
:10036A0083120313FB01FA01F9018030F800F10C42
:10037A00F00C031CC9297408F90775080318750FCE
:10038A00FA070318FB0A0310F01FD1297408FA07A9
:10039A0075080318750FFB07FB0CFA0CF90CF80C1F
:1003AA00031CBC297B08F3007A08F2007908F100E3
:0603BA007808F0000800C5
:1003C000193083120313FD00FD0BE4290000000027
:0203D000080023
:0E03D2008312031359088A005808820008009D
:1003E0000F3083120313C1000E30C4000E30C7005B
:1003F0000F30CA00F2200A30F4004B08F000E12070
:100400007808F0007008E4006408C00064084B023B
:10041000F0007008CD000A30F400E1207008CD0033
:100420000A30F400E1207808F0007008CD00700870
:10043000C2006408C3000A30F4004C08F000E12058
:100440007808F0007008E4006408C00064084C02FA
:10045000F0007008CD000A30F400E1207008CD00F3
:100460000A30F400E1207808F0007008CD00700830
:10047000C5006408C6000A30F4003A08F000E12024
:100480007808F0007008E4006408C00064083A02CC
:10049000F0007008CD000A30F400E1207008CD00B3
:1004A0000A30F400E1207808F0007008CD007008F0
:1004B000C8006408C900B9013908093C031C682A4E
:1004C0003908413E84000008BB003821B90A5C2A83
:0604D000BE01BF0108009F
:1004D600A53083120313FD00FD0B6F2A00000000F8
:0204E60008000C
:1004E800831603139C1C7A2A0000742A83125E0860
:1004F80083169B0083125F0883169A009C131C15B1
:100508000B08F0008B1355309D00AA309D009C14F9
:0E051800F01B902A8B13912A8B171C110800E0
:10052600831203135E083C02F1000030031C013EF7
:100536003D02F2007108BC007208BD00FD30720277
:10054600031DA72A2A307102031CAB2ABC01BD0178
:0C0556003C08CE003D08CF00F02108005A
:10056200831203135F08F1000130F00071080319D0
:10057200BE2AF00D7010FF3EB82A7008E100F009A3
:100582005E088400700880058417700880056B225D
:10059200610880048413E02161080005E00060081E
:1005A200003A013003190030E0006B226008F000CD
:0205B20008003F
:1005B400831203135F08F1000130F000710803197E
:1005C400E72AF00D7010FF3EE12A7008E300F009FD
:1005D4007008E2005E088400700880058417E10159
:1005E4006108073C031C0C2B6108F0006008F10053
:1005F40070080319012BF10CF113FF3EFB2A62086A
:100604008005711C072B63088004E02163088004C3
:0C061400E10AF22A8413AB21AB2108009C
:10062000831203135F08F1000130F0007108031911
:100630001D2BF00D7010FF3E172B7008E3007009A2
:10064000E2005E088400E101E0016008073C031C51
:10065000492B62088005841762088005B32163086E
:100660008004B321841363080005F0000319452BAF
:100670006008F1000130F00071080319432BF00D00
:100680007010FF3E3D2B7008E104AB21AB21E00A66
:08069000252B6108F0000800B1
:10069800831203135E083C07F1003D080318013E6E
:1006A800F2007108BC007208BD00FD307202031D23
:1006B8005F2B20307102031C652B2030BC00FD30FD
:0E06C800BD003C08CE003D08CF00F021080028
:1006D600E9218A110A128000840AD80A0319D90A64
:0806E600F003031D6B2B08005B
:1006EE0083120313E3015F08F1000130F00071087B
:1006FE000319852BF00D7010FF3E7F2B7008E20062
:10070E005E08840070080005F10071080130031DB9
:10071E000030F0006108F0060319AD2B6008003CB4
:10072E0003189D2B6B226B22E003952B5E08840031
:10073E0062080005F10071080130031D0030F00061
:10074E006108F0060319AD2BFF30E3006308F000DB
:02075E00080091
:100760000F3083120313C1000F30C2000E30C700D8
:100770000F30C9000F30CA00DF1FC62B0E30C30078
:10078000DE09DF09DE0A0319DF0AC82B0F30C300B8
:100790005E08F0005F08F100F10CF00CF113F10CB1
:1007A000F00CF113F10CF00CF113F10CF00CF1134F
:1007B0007008E1006430F400E12070080319E82BB0
:1007C0006430F4006108F000E1207008C400E92BF7
:1007D000C4010A30F4006108F000E1200A30F4009E
:1007E000E1207808F0007008C5000A30F4006108C4
:1007F000F000E1207808F0007008C6000F305E05B8
:10080000F0005F08F1000030F1057130F4000230B3
:10081000F500B521E830F4000330F500C42070087D
:10082000C800E0016008093C031C1E2C6008413E22
:1008300084000008BB003821E00A122CBE01BF0171
:020840000800AE
:1008420083120313F101F20172085F02031D2B2CC4
:1008520071085E02031C3F2C05152730FD00FD0BBD
:10086200302C0000000005112730FD00FD0B372C55
:0E08720000000000F10A0319F20A252C08000C
:10088000033083120313FB008A30FC005530FD0057
:10089000FD0B482CFC0B482CFB0B482C00000000E7
:0208A00008004E
:1008A200831203135E0883169B009C131C141A0800
:0408B200F00008004A
:1008B6000F3083120313C1000E30C4000E30C70080
:1008C6000F30CA0065210A30F4004B08F000E12021
:1008D6007808F0007008E9006908C00069084B0252
:1008E600F0007008CD000A30F400E1207008CD0059
:1008F6000A30F400E1207808F0007008CD00700896
:10090600C2006908C3000A30F4004C08F000E12078
:100916007808F0007008E9006908C00069084C0210
:10092600F0007008CD000A30F400E1207008CD0018
:100936000A30F400E1207808F0007008CD00700855
:10094600C5006908C6000A30F4003A08F000E12044
:100956007808F0007008E9006908C00069083A02E2
:10096600F0007008CD000A30F400E1207008CD00D8
:100976000A30F400E1207808F0007008CD00700815
:10098600C8006908C900B9013908093C031CD32C01
:100996003908413E84000008BB003821B90AC72C3B
:0609A600BE01BF010800C4
:1009AC000A3083120313A9000130AA000230AB00F5
:1009BC000330AC000430AD000530AE000630AF00A3
:1009CC000730B0000830B1000930B2000D30B30070
:1009DC000C30B4000B30B5000E30B6000F30B70041
:1009EC00B80107309F008B130B178B120B128B1156
:1009FC0083168C130C138C120C120C118C100C1003
:100A0C008113FF308600850183128501121130306D
:100A1C00900085140514BE01BF013C30DC00DE01E2
:100A2C00512483125C088400700880005C0ADD008D
:100A3C000130DE00512483125D08840070088000B0
:100A4C003C08CE003D08CF004024F0210130D000FE
:100A5C00D1018B170630DE000130DF003230E000B0
:100A6C00E101772370080319A82D3230DE00003025
:100A7C00DF0021240630DE000230DF006430E000AD
:100A8C00E101772370080319552D3230DE00003058
:100A9C00DF0021240130DE004C23D001802D0630F4
:100AAC00DE000330DF006430E000E10177237008E2
:100ABC0003196A2D3230DE000030DF0021240130B2
:100ACC00DE009322D001802D0630DE000430DF00E2
:100ADC006430E000E101772370080319802D323077
:100AEC00DE000030DF002124BC01BD01CE01CF01AE
:100AFC00D001F0210630DE000130DF003230E000A2
:100B0C00E10177237008031D402D50080319A42D13
:100B1C00D001D101DE013C08DF00742201308312C8
:100B2C00DE003D08DF0074220C140B3083128F00A2
:100B3C00DC308E00313090008515A72D0130D000AF
:100B4C00D101882E0630DE000230DF006430E00078
:100B5C00E101772370080319BF2D50080319BF2D2D
:100B6C003C30DE004C233230DE000030DF0021242C
:100B7C00882E0630DE000330DF006430E000E10137
:100B8C00772370080319D62D50080319D62D3C3045
:100B9C00DE0093223230DE000030DF002124882E6C
:100BAC000630DE000430DF003230E000E101772354
:100BBC007008FF3A0130031D0030F1005008003A74
:100BCC000130031D0030F0007108F0050319002EF0
:100BDC000630DE000430DF003230E000E101772324
:100BEC0070080319FA2DEE2DD109C830DE00DF0193
:100BFC002124882E0630DE000430DF003230E00085
:100C0C00E101772370080319882E50080319882EE8
:100C1C003230DE000030DF0021240630DE000430EC
:100C2C00DF003230E000E10177237008031D132E42
:100C3C000530DE000430DF00B1220530DE00043068
:100C4C00DF00CC30E000DA220530DE000430DF00BB
:100C5C004430E000DA222730FD00FD0B332E00007B
:100C6C0000000530DE000430DF00B1220530DE006C
:100C7C000430DF00CC30E000DA220530DE00043036
:100C8C00DF00BE30E000DA220530DE000430DF0089
:100C9C0010237008D300D4010530DE000430DF00CF
:100CAC0010237008F300F20153087207F000730868
:100CBC000318013E5407F1007008D3007108D400EA
:100CCC007008DE007108DF00B02340240630DE001F
:100CDC000430DF003230E000E1017723F009031D1E
:100CEC001E2E0630DE000430DF003230E000E10161
:100CFC0077237008031D772E3230DE000030DF00C2
:100D0C002124F021BE0A0319BF0A3F086D3A031DC6
:100D1C00912E60303E06031D942EF021302D952E21
:02400E0001218E
:020000040000FA
:1042000000000000FF00FF00FF00FF00FF00FF00B4
:10421000FF00FF00FF00FF00FF00FF00FF00FF00A6
:10422000FF00FF00FF00FF00FF00FF00FF00FF0096
:10423000FF00FF00FF00FF00FF00FF00FF00FF0086
:10424000FF00FF00FF00FF00FF00FF00FF00FF0076
:10425000FF00FF00FF00FF00FF00FF00FF00FF0066
:10426000FF00FF00FF00FF00FF00FF00FF00FF0056
:10427000FF00FF00FF00FF00FF00FF00FF00FF0046
:10428000FF00FF00FF00FF00FF00FF00FF00FF0036
:10429000FF00FF00FF00FF00FF00FF00FF00FF0026
:1042A000FF00FF00FF00FF00FF00FF00FF00FF0016
:1042B000FF00FF00FF00FF00FF00FF00FF00FF0006
:1042C000FF00FF00FF00FF00FF00FF00FF00FF00F6
:1042D000FF00FF00FF00FF00FF00FF00FF00FF00E6
:1042E000FF00FF00FF00FF00FF00FF00FF00FF00D6
:1042F000FF00FF00FF00FF00FF00FF00FF00FF00C6
:00000001FF

